:100000008FC0B0C1F4C0A7C0A6C0A5C0A4C0A3C083
:10001000A2C0A1C0A0C09FC09EC09DC0C6C19BC0C1
:100020009AC099C098C000407A10F35A00A0724E4E
:1000300018090010A5D4E80000E87648170000E48D
:100040000B54020000CA9A3B000000E1F5050000D5
:1000500080969800000040420F000000A08601003A
:100060000000102700000000E8030000000064000A
:10007000000000000A000000000001000000000075
:100080002C76D888DC674F0823DFC1DFAE59E1B199
:10009000B796E5E3E453C63AE651997696E8E6C2A8
:1000A0008426EB898C9B62ED407C6FFCEFBC9C9FAF
:1000B00040F2BAA56FA5F490055A2AF75C936B6CD1
:1000C000F9676DC11BFCE0E40D47FEF520E6B500C5
:1000D000D0ED902E0300943577050080841E080033
:1000E00000204E0A000000C80C333333330F986EE3
:1000F00012831141EF8D2114893BE65516CFFEE6A0
:10010000DB18D1844B381BF77C1D901DA4BBE42465
:10011000203284725E228100C9F124ECA1E53D27E2
:1001200011241FBECFE5D4E0DEBFCDBF13E0A0E6B3
:10013000B0E0ECE5F8E102C005900D92A430B10703
:10014000D9F713E0A4E0B3E001C01D92A433B107D6
:10015000E1F7C3D181CB54CFCF92DF92EF92FF92E0
:100160000F931F93CF93DF93062F142FF22EC82ED9
:10017000E6016E01D92EE60185E0E82E49914A3369
:10018000B8F4403328F44D3241F04E3289F40AC0BD
:10019000440F4056812F602F03C0812F602F44E110
:1001A000CFD406C0812F602F48E1CAD41A5F01C0A6
:1001B000145FEA9419F79F2D943721F480E3602FA0
:1001C00046E106C08F2D863721F4812F602F4AE14A
:1001D000B7D4DF91CF911F910F91FF90EF90DF90F7
:1001E000CF9008958EE087B98DEC86B908951F925F
:1001F0000F920FB60F9211242F933F934F935F935B
:100200006F937F938F939F93AF93BF93EF93FF93DE
:10021000E9DFFF91EF91BF91AF919F918F917F9116
:100220006F915F914F913F912F910F900FBE0F9063
:100230001F90189516B80895C09A0895C09808950B
:100240000F931F93DF93CF93CDB7DEB72A970FB6E7
:10025000F894DEBF0FBECDBF809105038823A1F0C7
:10026000809162009091630003D3882369F08091AC
:1002700062009091630087D343E050E020E030E0DB
:100280008E010F5F1F4F9BD8809104038823A1F03C
:100290008091600090916100EBD2882369F0809199
:1002A0006000909161006FD343E050E020E030E0C7
:1002B0008E010A5F1F4F83D8C1DF18D480910503D8
:1002C000882379F080E060E040E086D4CE0101969A
:1002D00061E070E040E050E024E730E03DDF13E013
:1002E00001C010E080910403882371F080E0612F49
:1002F00041E072D4612F6F5FCE01069670E040E05E
:1003000050E024E730E028DF80910403882341F4A3
:1003100080910503882321F480E262E042E05CD40E
:100320008FEF9EE9A4E281509040A040E1F700C029
:100330000000CAD38FE79AE1A6E081509040A04028
:10034000E1F700C0000078DF84E261E0ABD32A96D9
:100350000FB6F894DEBF0FBECDBFCF91DF911F91D6
:100360000F9108951F920F920FB60F9211242F93A1
:100370003F934F935F936F937F938F939F93AF932D
:10038000BF93EF93FF935CDFFF91EF91BF91AF912C
:100390009F918F917F916F915F914F913F912F919D
:1003A0000F900FBE0F901F9018951F920F920FB6CF
:1003B0000F921124EF92FF920F931F932F933F936D
:1003C0004F935F936F937F938F939F93AF93BF935D
:1003D000EF93FF93DF93CF93CDB7DEB72597DEBFC3
:1003E000CDBF64B175B1769567957695679570E0E8
:1003F000882777FD8095982FBFD59B01AC0169E9CF
:1004000079E481EA93E40FD59B01AC0120930603C4
:100410003093070340930803509309036091060348
:1004200070910703809108039091090345E050E023
:1004300022E030E07E010894E11CF11C8701BFD767
:10044000FDDE54D382E461E043E0C6D3C70162E03D
:1004500070E040E050E026E730E07EDE8FEF9EE97E
:10046000A4E281509040A040E1F700C000002CD3EE
:100470008FE79AE1A6E081509040A040E1F700C0EC
:100480000000DADE16B884E261E00CD32596DEBF08
:10049000CDBFCF91DF91FF91EF91BF91AF919F9130
:1004A0008F917F916F915F914F913F912F911F910C
:1004B0000F91FF90EF900F900FBE0F901F90189527
:1004C0008FE387BBC09A11BA8FEF82BB85B7807F5D
:1004D00085BF8BB7806C8BBF0895F2DF8091600081
:1004E0009091610065E370E040E055D1882371F49C
:1004F00081E08093040380916000909161006FE738
:1005000001D2809160009091610002D280916200DE
:100510009091630065E370E041E03DD1882371F480
:1005200081E08093050380916000909161006FE706
:10053000E9D18091620090916300EAD181DE52DEC0
:100540008FE79AE1A6E081509040A040E1F700C01B
:10055000000085B78F78806285BF789485B7806802
:1005600085BF8895FBCFFC01A081B1814E9121E030
:1005700030E0C901028002C0880F991F0A94E2F797
:10058000482B4C938FED91E00197F1F700C00000EC
:10059000A081B1814E91C901028002C0880F991FCC
:1005A0000A94E2F7809584238C939AE69A95F1F762
:1005B00000C0A081B18112978C91028002C0220FED
:1005C000331F0A94E2F78223EFE8F1E03197F1F765
:1005D00000C000000895FC01A081B1814E9181E02E
:1005E00090E09C01028002C0220F331F0A94E2F7C0
:1005F000422B4C93408131812281662391F054E15A
:100600005A95F1F7E42FF32F329102C0880F991F0A
:100610002A95E2F78095832380838CE38A95F1F70E
:10062000089550E55A95F1F7E42FF32F329102C067
:10063000880F991F2A95E2F7809583238083089578
:10064000FC01A081B1814E9181E090E09C0102808B
:1006500002C0220F331F0A94E2F7422B4C9325E08D
:100660002A95F1F70000A081B1812E91028002C08D
:10067000880F991F0A94E2F7809582238C938AE071
:100680008A95F1F700C0A081B18112978C9190E01A
:10069000028002C0959587950A94E2F78170907068
:1006A00020E42A95F1F70895EF92FF920F931F939C
:1006B000CF93DF938C01E62EC8E0D0E0FF24F394C3
:1006C0006F2D6E21C80187DFFF0C2197C9F7DF91DD
:1006D000CF911F910F91FF90EF900895EF92FF92AD
:1006E0000F931F93CF93DF938C01C8E0D0E0EE24EB
:1006F000E394FF24C801A4DF8111FE28EE0C2197AA
:10070000C9F78F2DDF91CF911F910F91FF90EF903F
:100710000895282F392FF90180E090E00AC0219137
:10072000822728E03CE8869508F483272A95D9F7A4
:100730009F5F9617A0F30895CF92DF92EF92FF92FA
:100740000F931F93CF93DF93EC0163E3ADDF93E04F
:10075000C92ED12CCC0EDD1E86018BE0E82EF12CAB
:10076000EC0EFD1ECE01BADFF80181938F01EE156C
:10077000FF05C1F7C60167E0CCDF91E02A8582134F
:1007800090E0892FDF91CF911F910F91FF90EF9013
:10079000DF90CF900895CF93DF93EC01FB01798335
:1007A00068834A83208181E090E0BC0102C0660F2B
:1007B000771F4A95E2F7AB01409542234083E881D9
:1007C000F98122910A8002C0880F991F0A94E2F7EA
:1007D000809582238083CE01C6DE882389F4CE01F2
:1007E000ABDF882369F08B81803139F0883241F4A6
:1007F00081E08C8B8FE78F8701C01C8A80E001C06D
:1008000081E0DF91CF910895CF92DF92EF92FF9236
:100810000F931F93CF93DF93EC01A5DECE016CEC19
:1008200043DFCE016EEB40DF3BE0C32ED12CCC0E7C
:10083000DD1E860124E1E22EF12CEC0EFD1ECE0120
:100840004DDFF80181938F01EE15FF05C1F7C60159
:1008500068E05FDF91E02B89821390E0892FDF91C0
:10086000CF911F910F91FF90EF90DF90CF9008955F
:10087000CF93DF93EC0177DECE016CEC15DFCE0178
:1008800064E412DF8F858F3361F08F3591F08F3103
:10089000C1F48FEB95E2A1E081509040A040E1F7D8
:1008A00017C08FE79BE4A2E081509040A040E1F7A1
:1008B0000FC08FED93E9A4E081509040A040E1F794
:1008C00007C08FEB97E2A9E081509040A040E1F78C
:1008D00000C00000CE0198DFDF91CF910895CF9343
:1008E000DF93EC0140DECE016CECDEDECE0164EB8A
:1008F000DBDECE01A5DEDF91CF910895FC01658797
:1009000046870895FC018489813009F4678708953A
:10091000CF93DF93EC0127DECE016CECC5DECE0178
:100920006EE4C2DECE016D85BFDECE016E85BCDE1B
:100930008C89813019F4CE016F85B6DEDF91CF91BD
:100940000895CF93DF93EC010EDECE016CECACDEAC
:10095000CE0168E4A9DECE0173DE8823E1F3DF91E6
:10096000CF910895CF93DF93EC01FDDDCE016CECC8
:100970009BDECE0168EB98DECE0162DE8823E1F3D8
:10098000DF91CF910895FC01948580E0638570E04C
:10099000682B792B77FD02C021E001C02FEF8489FD
:1009A000882329F4882777FD8095982F6FC0878545
:1009B0008F3361F0803420F48F3109F06EC04CC069
:1009C0008F3519F18F3709F068C03CC0332727FDF8
:1009D000309577FF03C0709561957F4F759567954A
:1009E00075956795269FC001279F900D369F900DA6
:1009F00011249C01B901882777FD8095982FBCD2DE
:100A000020E030E040E85EE346C0332727FD309524
:100A100077FF03C0709561957F4F75956795269F09
:100A2000C001279F900D369F900D11249C01B901A4
:100A3000882777FD8095982F9FD220E030E040E016
:100A40005EE329C0882777FD8095982F95D220E016
:100A500030E040E85DE31FC0332727FD309577FF86
:100A600003C0709561957F4F43E0759567954A95F2
:100A7000E1F7269FC001279F900D369F900D11240E
:100A80009C01B901882777FD8095982F75D220E0C9
:100A900030E040E05FE3D2D004C060E070E080E08E
:100AA00090E00895613011F4C19801C0C19A98E0B6
:100AB00087FF02C0C39A01C0C398C598C59A9150D8
:100AC00011F0880FF5CF0895CF93DF938CE061E0AC
:100AD000E9DF80E861E0E6DFC8EFD1E080E060E0D8
:100AE000E1DF2197D9F7DF91CF910895C49800C035
:100AF00000C0C49AC29800C000C081E261E0D2DFA9
:100B000083E161E0CFDF84E061E0CCDF83E161E09D
:100B1000C9DF88EB61E0C6DF80E261E0C3DF8CE023
:100B200061E0C0DFD1DF08951F93182F862F806406
:100B300061E0B8DF812F806861E0B4DF1F91089524
:100B4000DF92EF92FF920F931F93CF93DF93F82ED4
:100B5000E62ED42EE9DF2D2D30E0E901CC0FDD1F8C
:100B6000C20FD31FCC0FDD1FCC0FDD1FC455DF4FCD
:100B70000CE08D2D809F8001112408541F4F899116
:100B800060E090DFC017D107D1F76E2D6F5F8F2D1A
:100B9000CBDF0D2D0F5F802F90E0EC01CC0FDD1F20
:100BA000C80FD91FCC0FDD1FCC0FDD1FC455DF4F81
:100BB0008CE0089F8001112408541F4F899160E048
:100BC00071DFC017D107D1F7DF91CF911F910F913E
:100BD000FF90EF90DF900895EF92FF920F931F9395
:100BE000DF93CF930F92CDB7DEB749839DDF498165
:100BF000842F90E0880F991F7C0153E0EE0CFF1CBE
:100C00005A95E1F7E80EF91E84E690E0E80EF91E29
:100C100002E1409F800111240A581F4FF701819182
:100C20007F0160E03FDFE016F106C1F70F90CF9142
:100C3000DF911F910F91FF90EF900895A0E2B0E037
:100C4000E3E2F6E085C369837A838B839C832D83FB
:100C50003E834F835887CE010196BE01675F7F4F69
:100C60000ED3CE010596BE016F5E7F4F08D39985E6
:100C7000923078F089898230C0F0943019F4823053
:100C800041F4CBC0843019F4923079F4C6C092306C
:100C900051F481E02A859A89291709F480E08A872E
:100CA000CE010996BCC0823051F481E02A859A8930
:100CB000291709F480E08A8BCE014196B0C06D847B
:100CC0007E848F849888ED88FE880F89188DE0E2F5
:100CD000F0E080E090E0DC01AA24BB24650120E084
:100CE00030E0A901B3016170707061157105D1F038
:100CF0002E0D3F1D401F511F15012601280E391EC4
:100D00004A1E5B1E81E090E0A0E0B0E02E153F059A
:100D10004007510718F080E090E0DC01820D931D40
:100D2000A41DB51DAA0CBB1CCC1CDD1C17FF09C0E3
:100D300061E0262E312C412C512CA228B328C42846
:100D4000D528319749F0EE0CFF1C001F111F969417
:100D5000879477946794C6CF6B897C89EB85FC85F3
:100D60006E0F7F1F6E5F7F4F7C8F6B8F61E0EA8518
:100D70007A89E71709F460E06A8F6B8D7C8D10C06B
:100D8000FC01E170F070309729F056954795379542
:100D900027955068B695A795979587956F5F7F4F74
:100DA000B7FDEECF0CC0880F991FAA1FBB1F57FDC0
:100DB0008160220F331F441F551F615070408030E7
:100DC000E0E09E07E0E0AE07E0E4BE0760F36B8F73
:100DD0007C8F6FE7E62EF12C012D112DE822F922F0
:100DE0000A231B2360E4E616F1040105110561F4F2
:100DF00087FD0AC0211531054105510529F0805CA8
:100E00009F4FAF4FBF4F80788D8F9E8FAF8FB8A30E
:100E100083E0898FCE01499602C08CEF91E062D1C8
:100E2000A096E2E1B1C2A8E1B0E0E8E1F7E098C243
:100E300069837A838B839C832D833E834F8358877A
:100E40008E01075F1F4FCE010196B80118D281E1D4
:100E5000E82EF12CEC0EFD1ECE010596B7010FD247
:100E60009985923008F483C08989823008F47BC068
:100E70002A853A8923272A87943011F0923021F469
:100E8000981709F06CC071C0843039F41D861E8635
:100E90001F86188A1C861B866AC0823019F484E07B
:100EA000898765C08B859C852B893C89821B930B28
:100EB0009C878B872D853E854F855889ED88FE88D8
:100EC0000F89188D2E153F054007510738F4220F62
:100ED000331F441F551F01979C878B876FE170E07C
:100EE000A12CB12CC12CA0E4DA2E80E090E0DC0132
:100EF0002E153F054007510740F08A299B29AC2950
:100F0000BD292E193F09400B510BD694C794B794B5
:100F1000A794220F331F441F551F6150704041F7A3
:100F20006FE7E62EF12C012D112DE822F9220A237C
:100F30001B2360E4E616F1040105110561F487FD49
:100F40000AC0211531054105510529F0805C9F4FEC
:100F5000AF4FBF4F80788D879E87AF87B88B8E014C
:100F6000075F1F4F04C0870102C00CEF11E0C801EA
:100F7000B9D06896EAE010C2A8E0B0E0E1ECF7E092
:100F8000F3C17B018C0183E08983D801C7018827E5
:100F9000B7FD83959927AA27BB27282F8A83E114B9
:100FA000F1040105110519F482E0898336C08EE150
:100FB00090E09C838B83222389F080E0E81680E018
:100FC000F80680E0080780E8180759F110950095A9
:100FD000F094E094E11CF11C011D111DED82FE82D4
:100FE0000F831887C801B70123D09C0121503040DE
:100FF0001216130694F4022E04C0EE0CFF1C001F00
:10100000111F0A94D2F7ED82FE820F8318878EE1BA
:1010100090E0821B930B9C838B83CE01019662D060
:1010200004C060E070E080E09FEC2896E6E0B8C184
:10103000AF92BF92CF92DF92EF92FF920F931F93E6
:101040007B018C0180E0E81680E0F80681E008076B
:1010500080E0180758F4EFEFEE16F10401051105D2
:1010600009F090F480E090E0DC0117C0F0E0EF16AA
:10107000F0E0FF06F0E00F07F1E01F0750F480E119
:1010800090E0A0E0B0E009C088E090E0A0E0B0E02F
:1010900004C088E190E0A0E0B0E020E230E040E071
:1010A00050E0281B390B4A0B5B0B5701680104C049
:1010B000D694C794B794A7948A95D2F7D601C50160
:1010C0008C5F9D4FFC018081281B3109410951092A
:1010D000C9011F910F91FF90EF90DF90CF90BF90CB
:1010E000AF900895EF92FF920F931F93CF93DF93EA
:1010F000FC01248135814681578161818081823064
:1011000020F44061EFEFF0E0A3C0843009F49BC00D
:10111000823009F492C0211531054105510509F4C9
:101120008FC00280F381E02D8FEFE238F8070CF0DA
:101130005AC0C2E8DFEFCE1BDF0BCA31D1056CF518
:1011400079018A010C2E04C016950795F794E7944F
:101150000A94D2F781E090E0A0E0B0E00C2E04C049
:10116000880F991FAA1FBB1F0A94D2F70197A109E4
:10117000B10982239323A423B52321E030E040E08A
:1011800050E00097A105B10519F420E030E0A90175
:101190002E293F29402B512B03C020E030E0A9012C
:1011A000DA01C9018F779070A070B070803491051A
:1011B000A105B10539F427FF09C0205C3F4F4F4F0F
:1011C0005F4F04C0215C3F4F4F4F5F4FE1E0F0E0C5
:1011D000203080E0380780E0480780E4580728F591
:1011E000E0E0F0E022C0E038F1056CF5E158FF4F97
:1011F000DA01C9018F779070A070B07080349105CA
:10120000A105B10539F427FF09C0205C3F4F4F4FBE
:101210005F4F04C0215C3F4F4F4F5F4F57FF05C0EA
:101220005695479537952795319687E0569547957A
:10123000379527958A95D1F70BC0E0E0F0E005C01F
:10124000E0E0F0E005C0EFEFF0E020E030E0A901E1
:101250008E2F879588278795942F9F776795662788
:101260006795E695E22EA92FA82BFE2FF62B622F6D
:10127000732F8A2F9F2FCDB7DEB7E6E091C0DC0138
:10128000FB012C9111963C91119712968C9112971B
:10129000482F4F7750E0982F991F9927991F139641
:1012A0006C911397862F880F892B90E0661F662715
:1012B000661F6183009739F52115310541055105F8
:1012C00011F482E029C082E89FEF9383828367E074
:1012D000220F331F441F551F6A95D1F783E0808387
:1012E00009C0220F331F441F551F8281938101972C
:1012F00093838283203080E0380780E0480780E4D1
:10130000580778F320C08F3F910579F421153105F6
:101310004105510519F484E08083089544FF03C01A
:1013200081E0808310C010820EC08F57904093835D
:10133000828383E0808387E0220F331F441F551F81
:101340008A95D1F750642483358346835783089563
:101350002F923F924F925F926F927F928F929F92C5
:10136000AF92BF92CF92DF92EF92FF920F931F93B3
:10137000CF93DF93CDB7DEB7CA1BDB0B0FB6F89464
:10138000DEBF0FBECDBF09942A88398848885F84A4
:101390006E847D848C849B84AA84B984C884DF8015
:1013A000EE80FD800C811B81AA81B981CE0FD11DF9
:1013B0000FB6F894DEBF0FBECDBFED010895EF92DA
:1013C000FF920F931F93322FF02E47FF02C0A4E12C
:1013D00001C0A4E0E42FFF27E7FDF095F7FF03C06D
:1013E000F095E195FF4F4F2D512F2E2F032FEA2E11
:1013F00007D08F2D912F1F910F91FF90EF9008959F
:10140000A9E0B0E0E5E0FAE0ABCF6A01F22E102FE0
:101410000C3318F4B02EB39402C0ECE3BE2EAE0130
:101420004F5F5F4F27E00B2D3FD1298130E0A901AD
:10143000497050704130510531F0E1FC06C0E0FECA
:1014400006C0E0E205C0EDE203C0EBE201C0E0E06F
:1014500023FF37C0EE2311F084E001C083E08F1535
:1014600018F4F81A8F2D01C080E0E4FC0BC0982F0F
:10147000D60120E202C02D9391509923E1F7C80EC6
:10148000D11C80E0EE2319F0D601ED936D01F60139
:101490003196E2FE05C09EE4D6019C9321E404C08F
:1014A0009EE6D6019C9321E611962C939183329669
:1014B000982FDF0120E202C02D9391509923E1F78C
:1014C0003DC022FF41C0EE2311F084E001C083E063
:1014D0008F1518F4F81A8F2D01C080E0E4FC0BC0C2
:1014E000982FD60120E202C02D9391509923E1F765
:1014F000C80ED11C80E0EE2319F0D601ED936D01EA
:10150000F6013196E2FE09C099E4D6019C939EE46F
:1015100011969C93119796E407C099E6D6019C9387
:101520009EE611969C9396E691833296982FDF0162
:1015300020E202C02D9391509923E1F7E80FF11DAD
:1015400010822EEF3FEFACC041E050E0EE2311F4EB
:1015500040E050E01816190624F4BC016F5F7F4F7D
:1015600002C061E070E0640F751F112329F0412F64
:1015700050E04F5F5F4F02C040E050E0460F571F02
:101580006F2D70E0461757071CF40F2D041B01C088
:1015900000E0FF24A70140715070E4FC0DC0E3FCA3
:1015A0000BC0602FD60170E202C07D9361506623AC
:1015B000E1F7C00ED11C00E0EE2319F0D601ED9347
:1015C0006D014115510559F4402FF60150E302C059
:1015D000519341504423E1F7C00ED11C00E0B80EF6
:1015E000FA80A9014071507024FF04C0BF2DB133AF
:1015F00009F4BA941B142CF4AB2DA93018F0A8E010
:1016000001C0A1E09C0197FF02C020E030E0BC01D6
:101610006F5F7F4F621B730BFE013196E60FF71F62
:101620006EE2E62EBC016A1B7109A12FB0E0AA246C
:10163000BB24AA1ABB0A1FEF2F3F310719F4D601AA
:10164000ED926D01821793072CF06217730714F463
:10165000108101C010E32150304031962A153B051E
:1016600024F0D6011D936D01E6CF2817390749F400
:10167000BF2DB63328F4B53321F44115510509F4D3
:1016800011E3F6011193802FDF0190E202C09D93D8
:1016900081508823E1F7E00FF11D108220E030E057
:1016A000C9012996EAE078CE283008F027E03327F0
:1016B000DA01990F311D87FD916000966105710572
:1016C00039F432602E5F3D9330E32A95E1F70895B7
:1016D0009F3F30F080387105610509F03C5F3C5F49
:1016E0003D93913008F08068911DDF93CF931F9355
:1016F0000F93FF92EF92192F987F9695E92F969569
:101700009695E90FFF27E058FF4F99273327EE24DE
:10171000FF24A701E70105900894079428F4360FE9
:10172000E71EF81E491F511D660F771F881F991F5E
:101730000694A1F70590079428F4E70EF81E491FB8
:10174000561FC11D770F881F991F661F0694A1F7AA
:101750000590079428F4F80E491F561FC71FD11D86
:10176000880F991F661F771F0694A1F705900794AD
:1017700020F4490F561FC71FD81F990F661F771FE8
:10178000881F0694A9F784911095177041F0D6959B
:10179000C79557954795F794E7941A95C1F7E6E2F0
:1017A000F0E06894159015913591659195910590AB
:1017B0007FE27395E118F10A430B560BC90BD00970
:1017C000C0F7E10CF11E431F561FC91FD01D7EF448
:1017D000703311F48A95E6CFE894015030F0080F89
:1017E0000AF40027021708F4202F2395022F7A33DA
:1017F00028F079E37D932A95E9F710C07D932A9527
:1018000089F6069497956795379517951794E1187B
:10181000F10A430B560BC90BD00998F023957E9122
:1018200073957A3308F070E37C932013B8F77E91B8
:1018300070617D9330F0839571E37D9370E32A9519
:10184000E1F71124EF90FF900F911F91CF91DF915D
:0C185000992787FD90950895F894FFCF2C
:10185C000A031F03003E4141413E003F4040403FD0
:10186C000001017F01010000417F4100007F04085D
:10187C00107F000000000000007F49494941007FB3
:10188C0009192946007F09192946007F494949361B
:10189C00007C1211127C0001017F0101FC7A06060A
:1018AC00060606067AFC00007EBCC0C0C0C0C0C0E4
:1018BC00BC7E0000000000000000000078FC00006E
:1018CC0000000000000000003C7E00000002868644
:1018DC00868686867AFC00007EBDC3C3C3C3C3C3A1
:1018EC008100000000028686868686867AFC0000CF
:1018FC000081C3C3C3C3C3C3BD7E0000FC7880801A
:10190C008080808078FC0000000103030303030344
:10191C003D7E0000FC7A8686868686860200000064
:10192C000081C3C3C3C3C3C3BD7E0000FC7A8686DB
:10193C0086868686020000007EBDC3C3C3C3C3C3B4
:10194C00BD7E000000020303030303037AFC0000C6
:10195C0000000000000000003C7E0000FC7A86863F
:10196C00868686867AFC00007EBDC3C3C3C3C3C310
:10197C00BD7E0000FC7A8686868686867AFC000010
:10198C000081C3C3C3C3C3C3BD7E000000008080FD
:10199C008080808000000000000103030303030328
:1019AC00010000000C12120C0000FC7A0606060264
:1019BC000000000000007EBCC0C0C0800000000021
:1019CC00000000000000000000C0C000000000008B
:1019DC0000000000020E72800000000080720E02F7
:1019EC00000000031CE0E01C0300000000000000ED
:1019FC0000000000000102020303030304040404BA
:101A0C00040404040505050505050505050505057E
:101A1C00050505050606060606060606060606065E
:101A2C00060606060606060606060606060606064A
:101A3C00060606060707070707070707070707072E
:101A4C00070707070707070707070707070707071A
:101A5C00070707070707070707070707070707070A
:101A6C0007070707070707070707070707070707FA
:101A7C0007070707080808080808080808080808DE
:101A8C0008080808080808080808080808080808CA
:101A9C0008080808080808080808080808080808BA
:101AAC0008080808080808080808080808080808AA
:101ABC00080808080808080808080808080808089A
:101ACC00080808080808080808080808080808088A
:101ADC00080808080808080808080808080808087A
:101AEC00080808080808080808080808080808086A
:041AFC0008080808C6
:00000001FF
